{
  "contractName": "CredentialStatusRegistry",
  "abi": [
    {
      "constant": true,
      "inputs": [
        {
          "name": "",
          "type": "address"
        },
        {
          "name": "",
          "type": "uint256"
        }
      ],
      "name": "credentialList",
      "outputs": [
        {
          "name": "credentialStatus",
          "type": "uint256"
        },
        {
          "name": "statusReason",
          "type": "bytes32"
        },
        {
          "name": "time",
          "type": "uint256"
        }
      ],
      "payable": false,
      "stateMutability": "view",
      "type": "function"
    },
    {
      "constant": true,
      "inputs": [],
      "name": "multiSigContract",
      "outputs": [
        {
          "name": "",
          "type": "address"
        }
      ],
      "payable": false,
      "stateMutability": "view",
      "type": "function"
    },
    {
      "inputs": [
        {
          "name": "multiSigContract",
          "type": "address"
        }
      ],
      "payable": false,
      "stateMutability": "nonpayable",
      "type": "constructor"
    },
    {
      "constant": false,
      "inputs": [
        {
          "name": "identity",
          "type": "address"
        },
        {
          "name": "intParams",
          "type": "uint256[]"
        },
        {
          "name": "stringParams",
          "type": "string"
        },
        {
          "name": "addressParams",
          "type": "address[]"
        },
        {
          "name": "bytesParams",
          "type": "bytes32[]"
        }
      ],
      "name": "execute",
      "outputs": [
        {
          "name": "",
          "type": "bool"
        }
      ],
      "payable": false,
      "stateMutability": "nonpayable",
      "type": "function"
    }
  ],
  "bytecode": "0x608060405234801561001057600080fd5b506040516020806106838339810180604052602081101561003057600080fd5b810190808051906020019092919050505080806000806101000a81548173ffffffffffffffffffffffffffffffffffffffff021916908373ffffffffffffffffffffffffffffffffffffffff16021790555050506105f0806100936000396000f3fe608060405234801561001057600080fd5b50600436106100415760003560e01c8063638fa8aa146100465780638faaefc8146100b6578063f1c4195814610100575b600080fd5b6100926004803603604081101561005c57600080fd5b81019080803573ffffffffffffffffffffffffffffffffffffffff169060200190929190803590602001909291905050506103af565b60405180848152602001838152602001828152602001935050505060405180910390f35b6100be6103e6565b604051808273ffffffffffffffffffffffffffffffffffffffff1673ffffffffffffffffffffffffffffffffffffffff16815260200191505060405180910390f35b610395600480360360a081101561011657600080fd5b81019080803573ffffffffffffffffffffffffffffffffffffffff1690602001909291908035906020019064010000000081111561015357600080fd5b82018360208201111561016557600080fd5b8035906020019184602083028401116401000000008311171561018757600080fd5b919080806020026020016040519081016040528093929190818152602001838360200280828437600081840152601f19601f820116905080830192505050505050509192919290803590602001906401000000008111156101e757600080fd5b8201836020820111156101f957600080fd5b8035906020019184600183028401116401000000008311171561021b57600080fd5b91908080601f016020809104026020016040519081016040528093929190818152602001838380828437600081840152601f19601f8201169050808301925050505050505091929192908035906020019064010000000081111561027e57600080fd5b82018360208201111561029057600080fd5b803590602001918460208302840111640100000000831117156102b257600080fd5b919080806020026020016040519081016040528093929190818152602001838360200280828437600081840152601f19601f8201169050808301925050505050505091929192908035906020019064010000000081111561031257600080fd5b82018360208201111561032457600080fd5b8035906020019184602083028401116401000000008311171561034657600080fd5b919080806020026020016040519081016040528093929190818152602001838360200280828437600081840152601f19601f82011690508083019250505050505050919291929050505061040b565b604051808215151515815260200191505060405180910390f35b6001602052816000526040600020602052806000526040600020600091509150508060000154908060010154908060020154905083565b6000809054906101000a900473ffffffffffffffffffffffffffffffffffffffff1681565b600061041a86868686866104f0565b5060405180606001604052808660018151811061043357fe5b602002602001015181526020018360008151811061044d57fe5b6020026020010151815260200142815250600160008873ffffffffffffffffffffffffffffffffffffffff1673ffffffffffffffffffffffffffffffffffffffff1681526020019081526020016000206000876000815181106104ac57fe5b602002602001015181526020019081526020016000206000820151816000015560208201518160010155604082015181600201559050506001905095945050505050565b60008060009054906101000a900473ffffffffffffffffffffffffffffffffffffffff1673ffffffffffffffffffffffffffffffffffffffff163373ffffffffffffffffffffffffffffffffffffffff1614610597576040517f08c379a00000000000000000000000000000000000000000000000000000000081526004018080602001828103825260248152602001806105a16024913960400191505060405180910390fd5b9594505050505056fe6f6e6c79206d756c7469736967636f6e74726163742063616e2065786563757465206974a165627a7a723058203fa02553a85aec02f9d07a0f9593731bfc8c8ccbf631c3921adafd7761d26c700029",
  "source": "pragma solidity ^0.5.1;\n\nimport './OperationExecutor.sol';\n\n/// @title CredentialStatusRegistry\n/// @notice Operation Executor implementation to handle credential status per issuer, exploiting the multi signature approach of the multiSigOperations contract address\n/// @author Andrea Taglia - <drew.taglia@gmail.com>\ncontract CredentialStatusRegistry is OperationExecutor{\n\n  /// @notice maps issuers of credentials to credential id and its state\n  mapping(address => mapping (uint256 => State)) public credentialList;\n  /// @notice credential state made by a status code, status reason and time of issuing\n  struct State{\n      uint256 credentialStatus;\n      bytes32 statusReason;\n      uint256 time;\n  }\n\n  /// @param multiSigContract (address) address of the multiSigOperations contract to handle multi sig updates on this contract structure\n  constructor (address multiSigContract) OperationExecutor(multiSigContract) public {}\n\n\n  /// @dev change the status of a credential\n  /// @param identity (address) identity relative to changes to make\n  /// @param intParams (uint256[]) index 0 has to carry the id of the credential to be changed. index 1 has to carry the credential Status code. other indexes not used\n  /// @param stringParams (string) not used\n  /// @param addressParams (address[]) not used\n  /// @param bytesParams (bytes32[]) index 0 has to carry the status reason. other indexes not used\n  /// @return  (bool) true if everything went well\n  function execute(address identity, uint256[] memory intParams, string memory stringParams, address[] memory addressParams, bytes32[] memory bytesParams) public returns (bool){\n    super.execute(identity, intParams, stringParams, addressParams, bytesParams);\n    credentialList[identity][intParams[0]] = State({\n      credentialStatus: intParams[1],\n      statusReason: bytesParams[0],\n      time: now\n    });\n    return true;\n  }\n\n}\n\n",
  "sourcePath": "/mnt/c/dev/ssi/ssi-smart-contracts/contracts/CredentialStatusRegistry.sol",
  "compiler": {
    "name": "solc",
    "version": "0.5.8+commit.23d335f2.Emscripten.clang"
  },
  "schemaVersion": "3.0.11",
  "updatedAt": "2019-08-30T09:25:53.287Z",
  "devdoc": {
    "author": "Andrea Taglia - <drew.taglia@gmail.com>",
    "methods": {
      "constructor": {
        "params": {
          "multiSigContract": "(address) address of the multiSigOperations contract to handle multi sig updates on this contract structure"
        }
      },
      "execute(address,uint256[],string,address[],bytes32[])": {
        "details": "change the status of a credential",
        "params": {
          "addressParams": "(address[]) not used",
          "bytesParams": "(bytes32[]) index 0 has to carry the status reason. other indexes not used",
          "identity": "(address) identity relative to changes to make",
          "intParams": "(uint256[]) index 0 has to carry the id of the credential to be changed. index 1 has to carry the credential Status code. other indexes not used",
          "stringParams": "(string) not used"
        },
        "return": "(bool) true if everything went well"
      }
    },
    "title": "CredentialStatusRegistry"
  },
  "userdoc": {
    "methods": {},
    "notice": "Operation Executor implementation to handle credential status per issuer, exploiting the multi signature approach of the multiSigOperations contract address"
  }
}