{
  "contractName": "MultiSigOperations",
  "abi": [
    {
      "constant": true,
      "inputs": [],
      "name": "operationsCount",
      "outputs": [
        {
          "name": "",
          "type": "uint256"
        }
      ],
      "payable": false,
      "stateMutability": "view",
      "type": "function"
    },
    {
      "constant": true,
      "inputs": [
        {
          "name": "",
          "type": "uint256"
        },
        {
          "name": "",
          "type": "address"
        }
      ],
      "name": "confirmations",
      "outputs": [
        {
          "name": "",
          "type": "bool"
        }
      ],
      "payable": false,
      "stateMutability": "view",
      "type": "function"
    },
    {
      "constant": true,
      "inputs": [],
      "name": "stopped",
      "outputs": [
        {
          "name": "",
          "type": "bool"
        }
      ],
      "payable": false,
      "stateMutability": "view",
      "type": "function"
    },
    {
      "constant": true,
      "inputs": [
        {
          "name": "",
          "type": "address"
        }
      ],
      "name": "lastOperationBlock",
      "outputs": [
        {
          "name": "",
          "type": "uint256"
        }
      ],
      "payable": false,
      "stateMutability": "view",
      "type": "function"
    },
    {
      "constant": true,
      "inputs": [
        {
          "name": "",
          "type": "uint256"
        }
      ],
      "name": "operations",
      "outputs": [
        {
          "name": "identity",
          "type": "address"
        },
        {
          "name": "executed",
          "type": "bool"
        },
        {
          "name": "confirmationsCount",
          "type": "uint8"
        },
        {
          "name": "executor",
          "type": "address"
        },
        {
          "name": "stringParams",
          "type": "string"
        }
      ],
      "payable": false,
      "stateMutability": "view",
      "type": "function"
    },
    {
      "constant": true,
      "inputs": [],
      "name": "permissionRegistry",
      "outputs": [
        {
          "name": "",
          "type": "address"
        }
      ],
      "payable": false,
      "stateMutability": "view",
      "type": "function"
    },
    {
      "constant": true,
      "inputs": [],
      "name": "deployer",
      "outputs": [
        {
          "name": "",
          "type": "address"
        }
      ],
      "payable": false,
      "stateMutability": "view",
      "type": "function"
    },
    {
      "inputs": [],
      "payable": false,
      "stateMutability": "nonpayable",
      "type": "constructor"
    },
    {
      "anonymous": false,
      "inputs": [
        {
          "indexed": true,
          "name": "identity",
          "type": "address"
        },
        {
          "indexed": false,
          "name": "sender",
          "type": "address"
        },
        {
          "indexed": false,
          "name": "operationId",
          "type": "uint256"
        },
        {
          "indexed": true,
          "name": "executor",
          "type": "address"
        },
        {
          "indexed": false,
          "name": "lastOperationBlock",
          "type": "uint256"
        }
      ],
      "name": "Submission",
      "type": "event"
    },
    {
      "anonymous": false,
      "inputs": [
        {
          "indexed": true,
          "name": "identity",
          "type": "address"
        },
        {
          "indexed": false,
          "name": "sender",
          "type": "address"
        },
        {
          "indexed": false,
          "name": "operationId",
          "type": "uint256"
        },
        {
          "indexed": true,
          "name": "executor",
          "type": "address"
        },
        {
          "indexed": false,
          "name": "lastOperationBlock",
          "type": "uint256"
        }
      ],
      "name": "Confirmation",
      "type": "event"
    },
    {
      "anonymous": false,
      "inputs": [
        {
          "indexed": true,
          "name": "identity",
          "type": "address"
        },
        {
          "indexed": false,
          "name": "sender",
          "type": "address"
        },
        {
          "indexed": false,
          "name": "operationId",
          "type": "uint256"
        },
        {
          "indexed": true,
          "name": "executor",
          "type": "address"
        },
        {
          "indexed": false,
          "name": "lastOperationBlock",
          "type": "uint256"
        }
      ],
      "name": "Revocation",
      "type": "event"
    },
    {
      "anonymous": false,
      "inputs": [
        {
          "indexed": true,
          "name": "identity",
          "type": "address"
        },
        {
          "indexed": false,
          "name": "operationId",
          "type": "uint256"
        },
        {
          "indexed": true,
          "name": "executor",
          "type": "address"
        },
        {
          "indexed": false,
          "name": "lastOperationBlock",
          "type": "uint256"
        }
      ],
      "name": "Execution",
      "type": "event"
    },
    {
      "constant": false,
      "inputs": [
        {
          "name": "registryAddress",
          "type": "address"
        }
      ],
      "name": "setPermissionRegistry",
      "outputs": [],
      "payable": false,
      "stateMutability": "nonpayable",
      "type": "function"
    },
    {
      "constant": false,
      "inputs": [],
      "name": "enableCircuitBreaker",
      "outputs": [],
      "payable": false,
      "stateMutability": "nonpayable",
      "type": "function"
    },
    {
      "constant": false,
      "inputs": [],
      "name": "disableCircuitBreaker",
      "outputs": [],
      "payable": false,
      "stateMutability": "nonpayable",
      "type": "function"
    },
    {
      "constant": false,
      "inputs": [
        {
          "name": "identity",
          "type": "address"
        },
        {
          "name": "executor",
          "type": "address"
        },
        {
          "name": "intParams",
          "type": "uint256[]"
        },
        {
          "name": "stringParams",
          "type": "string"
        },
        {
          "name": "addressParams",
          "type": "address[]"
        },
        {
          "name": "bytesParams",
          "type": "bytes32[]"
        }
      ],
      "name": "submitOperation",
      "outputs": [
        {
          "name": "",
          "type": "uint256"
        }
      ],
      "payable": false,
      "stateMutability": "nonpayable",
      "type": "function"
    },
    {
      "constant": false,
      "inputs": [
        {
          "name": "opId",
          "type": "uint256"
        }
      ],
      "name": "confirmOperation",
      "outputs": [],
      "payable": false,
      "stateMutability": "nonpayable",
      "type": "function"
    },
    {
      "constant": false,
      "inputs": [
        {
          "name": "opId",
          "type": "uint256"
        }
      ],
      "name": "revokeConfirmation",
      "outputs": [],
      "payable": false,
      "stateMutability": "nonpayable",
      "type": "function"
    }
  ],
  "bytecode": "0x60806040526000600660006101000a81548160ff02191690831515021790555034801561002b57600080fd5b5033600360006101000a81548173ffffffffffffffffffffffffffffffffffffffff021916908373ffffffffffffffffffffffffffffffffffffffff1602179055506127b18061007c6000396000f3fe608060405234801561001057600080fd5b50600436106100cf5760003560e01c8063854554761161008c578063b2e9949d11610066578063b2e9949d14610523578063b55a5c1c14610648578063d5f3948814610692578063fc4ce362146106dc576100cf565b806385455476146101f65780638bff608e146104c1578063a64254c314610519576100cf565b806320ea8d86146100d457806321208fa2146101025780632b4e7c1d1461010c5780633411c81c1461012a5780633995ed161461019057806375f12b21146101d4575b600080fd5b610100600480360360208110156100ea57600080fd5b810190808035906020019092919050505061070a565b005b61010a610b87565b005b610114610ccc565b6040518082815260200191505060405180910390f35b6101766004803603604081101561014057600080fd5b8101908080359060200190929190803573ffffffffffffffffffffffffffffffffffffffff169060200190929190505050610cd2565b604051808215151515815260200191505060405180910390f35b6101d2600480360360208110156101a657600080fd5b81019080803573ffffffffffffffffffffffffffffffffffffffff169060200190929190505050610d01565b005b6101dc610ecc565b604051808215151515815260200191505060405180910390f35b6104ab600480360360c081101561020c57600080fd5b81019080803573ffffffffffffffffffffffffffffffffffffffff169060200190929190803573ffffffffffffffffffffffffffffffffffffffff1690602001909291908035906020019064010000000081111561026957600080fd5b82018360208201111561027b57600080fd5b8035906020019184602083028401116401000000008311171561029d57600080fd5b919080806020026020016040519081016040528093929190818152602001838360200280828437600081840152601f19601f820116905080830192505050505050509192919290803590602001906401000000008111156102fd57600080fd5b82018360208201111561030f57600080fd5b8035906020019184600183028401116401000000008311171561033157600080fd5b91908080601f016020809104026020016040519081016040528093929190818152602001838380828437600081840152601f19601f8201169050808301925050505050505091929192908035906020019064010000000081111561039457600080fd5b8201836020820111156103a657600080fd5b803590602001918460208302840111640100000000831117156103c857600080fd5b919080806020026020016040519081016040528093929190818152602001838360200280828437600081840152601f19601f8201169050808301925050505050505091929192908035906020019064010000000081111561042857600080fd5b82018360208201111561043a57600080fd5b8035906020019184602083028401116401000000008311171561045c57600080fd5b919080806020026020016040519081016040528093929190818152602001838360200280828437600081840152601f19601f820116905080830192505050505050509192919290505050610edf565b6040518082815260200191505060405180910390f35b610503600480360360208110156104d757600080fd5b81019080803573ffffffffffffffffffffffffffffffffffffffff169060200190929190505050611454565b6040518082815260200191505060405180910390f35b61052161146c565b005b61054f6004803603602081101561053957600080fd5b81019080803590602001909291905050506115b2565b604051808673ffffffffffffffffffffffffffffffffffffffff1673ffffffffffffffffffffffffffffffffffffffff168152602001851515151581526020018460ff1660ff1681526020018373ffffffffffffffffffffffffffffffffffffffff1673ffffffffffffffffffffffffffffffffffffffff16815260200180602001828103825283818151815260200191508051906020019080838360005b838110156106095780820151818401526020810190506105ee565b50505050905090810190601f1680156106365780820380516001836020036101000a031916815260200191505b50965050505050505060405180910390f35b6106506116da565b604051808273ffffffffffffffffffffffffffffffffffffffff1673ffffffffffffffffffffffffffffffffffffffff16815260200191505060405180910390f35b61069a611700565b604051808273ffffffffffffffffffffffffffffffffffffffff1673ffffffffffffffffffffffffffffffffffffffff16815260200191505060405180910390f35b610708600480360360208110156106f257600080fd5b8101908080359060200190929190505050611726565b005b60008060008381526020019081526020016000209050600073ffffffffffffffffffffffffffffffffffffffff168160000160009054906101000a900473ffffffffffffffffffffffffffffffffffffffff1673ffffffffffffffffffffffffffffffffffffffff1614156107e7576040517f08c379a00000000000000000000000000000000000000000000000000000000081526004018080602001828103825260188152602001807f6f7065726174696f6e20646f6573206e6f74206578697374000000000000000081525060200191505060405180910390fd5b600015158160000160149054906101000a900460ff16151514610872576040517f08c379a000000000000000000000000000000000000000000000000000000000815260040180806020018281038252601a8152602001807f6f7065726174696f6e20616c726561647920657865637574656400000000000081525060200191505060405180910390fd5b600115156001600084815260200190815260200160002060003373ffffffffffffffffffffffffffffffffffffffff1673ffffffffffffffffffffffffffffffffffffffff16815260200190815260200160002060009054906101000a900460ff1615151461092c576040517f08c379a000000000000000000000000000000000000000000000000000000000815260040180806020018281038252602b815260200180612739602b913960400191505060405180910390fd5b60006001600084815260200190815260200160002060003373ffffffffffffffffffffffffffffffffffffffff1673ffffffffffffffffffffffffffffffffffffffff16815260200190815260200160002060006101000a81548160ff02191690831515021790555060018160000160158282829054906101000a900460ff160392506101000a81548160ff021916908360ff1602179055508060010160009054906101000a900473ffffffffffffffffffffffffffffffffffffffff1673ffffffffffffffffffffffffffffffffffffffff168160000160009054906101000a900473ffffffffffffffffffffffffffffffffffffffff1673ffffffffffffffffffffffffffffffffffffffff167f747d2854f26cb258f667941f2c7bfda21eb606dcd0c657010c4bb6cd4c757ce33385600260008760000160009054906101000a900473ffffffffffffffffffffffffffffffffffffffff1673ffffffffffffffffffffffffffffffffffffffff1673ffffffffffffffffffffffffffffffffffffffff16815260200190815260200160002054604051808473ffffffffffffffffffffffffffffffffffffffff1673ffffffffffffffffffffffffffffffffffffffff168152602001838152602001828152602001935050505060405180910390a343600260008360000160009054906101000a900473ffffffffffffffffffffffffffffffffffffffff1673ffffffffffffffffffffffffffffffffffffffff1673ffffffffffffffffffffffffffffffffffffffff16815260200190815260200160002081905550610b82826119f7565b505050565b600360009054906101000a900473ffffffffffffffffffffffffffffffffffffffff1673ffffffffffffffffffffffffffffffffffffffff163373ffffffffffffffffffffffffffffffffffffffff1614610c2d576040517f08c379a00000000000000000000000000000000000000000000000000000000081526004018080602001828103825260228152602001806127646022913960400191505060405180910390fd5b600660009054906101000a900460ff16610caf576040517f08c379a000000000000000000000000000000000000000000000000000000000815260040180806020018281038252601a8152602001807f6369726375697420627265616b6572206e6f742061637469766500000000000081525060200191505060405180910390fd5b6000600660006101000a81548160ff021916908315150217905550565b60055481565b60016020528160005260406000206020528060005260406000206000915091509054906101000a900460ff1681565b600360009054906101000a900473ffffffffffffffffffffffffffffffffffffffff1673ffffffffffffffffffffffffffffffffffffffff163373ffffffffffffffffffffffffffffffffffffffff1614610dc4576040517f08c379a000000000000000000000000000000000000000000000000000000000815260040180806020018281038252600d8152602001807f6f6e6c79206465706c6f7965720000000000000000000000000000000000000081525060200191505060405180910390fd5b600073ffffffffffffffffffffffffffffffffffffffff16600460009054906101000a900473ffffffffffffffffffffffffffffffffffffffff1673ffffffffffffffffffffffffffffffffffffffff1614610e88576040517f08c379a00000000000000000000000000000000000000000000000000000000081526004018080602001828103825260148152602001807f726567697374727920616c72656164792073657400000000000000000000000081525060200191505060405180910390fd5b80600460006101000a81548173ffffffffffffffffffffffffffffffffffffffff021916908373ffffffffffffffffffffffffffffffffffffffff16021790555050565b600660009054906101000a900460ff1681565b60008686600073ffffffffffffffffffffffffffffffffffffffff168173ffffffffffffffffffffffffffffffffffffffff161415610f86576040517f08c379a00000000000000000000000000000000000000000000000000000000081526004018080602001828103825260188152602001807f756e6b6e6f776e206578656375746f722061646472657373000000000000000081525060200191505060405180910390fd5b600460009054906101000a900473ffffffffffffffffffffffffffffffffffffffff1673ffffffffffffffffffffffffffffffffffffffff1663ca0576758383336040518463ffffffff1660e01b8152600401808473ffffffffffffffffffffffffffffffffffffffff1673ffffffffffffffffffffffffffffffffffffffff1681526020018373ffffffffffffffffffffffffffffffffffffffff1673ffffffffffffffffffffffffffffffffffffffff1681526020018273ffffffffffffffffffffffffffffffffffffffff1673ffffffffffffffffffffffffffffffffffffffff168152602001935050505060206040518083038186803b15801561108d57600080fd5b505afa1580156110a1573d6000803e3d6000fd5b505050506040513d60208110156110b757600080fd5b810190808051906020019092919050505061113a576040517f08c379a000000000000000000000000000000000000000000000000000000000815260040180806020018281038252601f8152602001807f7065726d697373696f6e20686173206e6f74206265656e206772616e7465640081525060200191505060405180910390fd5b60016005600082825401925050819055506040518061010001604052808a73ffffffffffffffffffffffffffffffffffffffff168152602001600015158152602001600060ff1681526020018973ffffffffffffffffffffffffffffffffffffffff16815260200188815260200187815260200186815260200185815250600080600554815260200190815260200160002060008201518160000160006101000a81548173ffffffffffffffffffffffffffffffffffffffff021916908373ffffffffffffffffffffffffffffffffffffffff16021790555060208201518160000160146101000a81548160ff02191690831515021790555060408201518160000160156101000a81548160ff021916908360ff16021790555060608201518160010160006101000a81548173ffffffffffffffffffffffffffffffffffffffff021916908373ffffffffffffffffffffffffffffffffffffffff16021790555060808201518160020190805190602001906112b79291906124e0565b5060a08201518160030190805190602001906112d492919061252d565b5060c08201518160040190805190602001906112f19291906125ad565b5060e082015181600501908051906020019061130e929190612637565b509050508773ffffffffffffffffffffffffffffffffffffffff168973ffffffffffffffffffffffffffffffffffffffff167f2ac7f8a454cf5a2da82cb4837902615891d68f5fe683e5f41b300478df5a546e33600554600260008f73ffffffffffffffffffffffffffffffffffffffff1673ffffffffffffffffffffffffffffffffffffffff16815260200190815260200160002054604051808473ffffffffffffffffffffffffffffffffffffffff1673ffffffffffffffffffffffffffffffffffffffff168152602001838152602001828152602001935050505060405180910390a343600260008b73ffffffffffffffffffffffffffffffffffffffff1673ffffffffffffffffffffffffffffffffffffffff1681526020019081526020016000208190555061144360055461206c565b600554925050509695505050505050565b60026020528060005260406000206000915090505481565b600360009054906101000a900473ffffffffffffffffffffffffffffffffffffffff1673ffffffffffffffffffffffffffffffffffffffff163373ffffffffffffffffffffffffffffffffffffffff1614611512576040517f08c379a00000000000000000000000000000000000000000000000000000000081526004018080602001828103825260228152602001806127646022913960400191505060405180910390fd5b600660009054906101000a900460ff1615611595576040517f08c379a00000000000000000000000000000000000000000000000000000000081526004018080602001828103825260168152602001807f6369726375697420627265616b6572206163746976650000000000000000000081525060200191505060405180910390fd5b6001600660006101000a81548160ff021916908315150217905550565b60006020528060005260406000206000915090508060000160009054906101000a900473ffffffffffffffffffffffffffffffffffffffff16908060000160149054906101000a900460ff16908060000160159054906101000a900460ff16908060010160009054906101000a900473ffffffffffffffffffffffffffffffffffffffff1690806003018054600181600116156101000203166002900480601f0160208091040260200160405190810160405280929190818152602001828054600181600116156101000203166002900480156116d05780601f106116a5576101008083540402835291602001916116d0565b820191906000526020600020905b8154815290600101906020018083116116b357829003601f168201915b5050505050905085565b600460009054906101000a900473ffffffffffffffffffffffffffffffffffffffff1681565b600360009054906101000a900473ffffffffffffffffffffffffffffffffffffffff1681565b60008082815260200190815260200160002060000160009054906101000a900473ffffffffffffffffffffffffffffffffffffffff1660008083815260200190815260200160002060010160009054906101000a900473ffffffffffffffffffffffffffffffffffffffff16600073ffffffffffffffffffffffffffffffffffffffff168173ffffffffffffffffffffffffffffffffffffffff161415611835576040517f08c379a00000000000000000000000000000000000000000000000000000000081526004018080602001828103825260188152602001807f756e6b6e6f776e206578656375746f722061646472657373000000000000000081525060200191505060405180910390fd5b600460009054906101000a900473ffffffffffffffffffffffffffffffffffffffff1673ffffffffffffffffffffffffffffffffffffffff1663ca0576758383336040518463ffffffff1660e01b8152600401808473ffffffffffffffffffffffffffffffffffffffff1673ffffffffffffffffffffffffffffffffffffffff1681526020018373ffffffffffffffffffffffffffffffffffffffff1673ffffffffffffffffffffffffffffffffffffffff1681526020018273ffffffffffffffffffffffffffffffffffffffff1673ffffffffffffffffffffffffffffffffffffffff168152602001935050505060206040518083038186803b15801561193c57600080fd5b505afa158015611950573d6000803e3d6000fd5b505050506040513d602081101561196657600080fd5b81019080805190602001909291905050506119e9576040517f08c379a000000000000000000000000000000000000000000000000000000000815260040180806020018281038252601f8152602001807f7065726d697373696f6e20686173206e6f74206265656e206772616e7465640081525060200191505060405180910390fd5b6119f28361206c565b505050565b6000806000808481526020019081526020016000209050600015158160000160149054906101000a900460ff16151514611a99576040517f08c379a000000000000000000000000000000000000000000000000000000000815260040180806020018281038252601a8152602001807f4f7065726174696f6e20616c726561647920657865637574656400000000000081525060200191505060405180910390fd5b600460009054906101000a900473ffffffffffffffffffffffffffffffffffffffff1673ffffffffffffffffffffffffffffffffffffffff1663e206d6318260000160009054906101000a900473ffffffffffffffffffffffffffffffffffffffff168360010160009054906101000a900473ffffffffffffffffffffffffffffffffffffffff168460000160159054906101000a900460ff166040518463ffffffff1660e01b8152600401808473ffffffffffffffffffffffffffffffffffffffff1673ffffffffffffffffffffffffffffffffffffffff1681526020018373ffffffffffffffffffffffffffffffffffffffff1673ffffffffffffffffffffffffffffffffffffffff1681526020018260ff1660ff168152602001935050505060206040518083038186803b158015611bd357600080fd5b505afa158015611be7573d6000803e3d6000fd5b505050506040513d6020811015611bfd57600080fd5b8101908080519060200190929190505050156120615760018160000160146101000a81548160ff02191690831515021790555060008160010160009054906101000a900473ffffffffffffffffffffffffffffffffffffffff1690508160010160009054906101000a900473ffffffffffffffffffffffffffffffffffffffff1673ffffffffffffffffffffffffffffffffffffffff168260000160009054906101000a900473ffffffffffffffffffffffffffffffffffffffff1673ffffffffffffffffffffffffffffffffffffffff167fcf741dc81a7cedc9db83d928e5fccaf376bdaec5880c65b16e625aa0b15c48a786600260008760000160009054906101000a900473ffffffffffffffffffffffffffffffffffffffff1673ffffffffffffffffffffffffffffffffffffffff1673ffffffffffffffffffffffffffffffffffffffff16815260200190815260200160002054604051808381526020018281526020019250505060405180910390a343600260008460000160009054906101000a900473ffffffffffffffffffffffffffffffffffffffff1673ffffffffffffffffffffffffffffffffffffffff1673ffffffffffffffffffffffffffffffffffffffff168152602001908152602001600020819055508073ffffffffffffffffffffffffffffffffffffffff1663f1c419588360000160009054906101000a900473ffffffffffffffffffffffffffffffffffffffff16846002018560030186600401876005016040518663ffffffff1660e01b8152600401808673ffffffffffffffffffffffffffffffffffffffff1673ffffffffffffffffffffffffffffffffffffffff168152602001806020018060200180602001806020018581038552898181548152602001915080548015611ebc57602002820191906000526020600020905b815481526020019060010190808311611ea8575b5050858103845288818154600181600116156101000203166002900481526020019150805460018160011615610100020316600290048015611f3f5780601f10611f1457610100808354040283529160200191611f3f565b820191906000526020600020905b815481529060010190602001808311611f2257829003601f168201915b50508581038352878181548152602001915080548015611fb457602002820191906000526020600020905b8160009054906101000a900473ffffffffffffffffffffffffffffffffffffffff1673ffffffffffffffffffffffffffffffffffffffff1681526020019060010190808311611f6a575b50508581038252868181548152602001915080548015611ff357602002820191906000526020600020905b815481526020019060010190808311611fdf575b50509950505050505050505050602060405180830381600087803b15801561201a57600080fd5b505af115801561202e573d6000803e3d6000fd5b505050506040513d602081101561204457600080fd5b810190808051906020019092919050505050600192505050612067565b60009150505b919050565b600660009054906101000a900460ff16156120ef576040517f08c379a00000000000000000000000000000000000000000000000000000000081526004018080602001828103825260168152602001807f6369726375697420627265616b6572206163746976650000000000000000000081525060200191505060405180910390fd5b60008060008381526020019081526020016000209050600073ffffffffffffffffffffffffffffffffffffffff168160000160009054906101000a900473ffffffffffffffffffffffffffffffffffffffff1673ffffffffffffffffffffffffffffffffffffffff1614156121cc576040517f08c379a00000000000000000000000000000000000000000000000000000000081526004018080602001828103825260188152602001807f6f7065726174696f6e20646f6573206e6f74206578697374000000000000000081525060200191505060405180910390fd5b600015156001600084815260200190815260200160002060003373ffffffffffffffffffffffffffffffffffffffff1673ffffffffffffffffffffffffffffffffffffffff16815260200190815260200160002060009054906101000a900460ff16151514612286576040517f08c379a00000000000000000000000000000000000000000000000000000000081526004018080602001828103825260278152602001806127126027913960400191505060405180910390fd5b600180600084815260200190815260200160002060003373ffffffffffffffffffffffffffffffffffffffff1673ffffffffffffffffffffffffffffffffffffffff16815260200190815260200160002060006101000a81548160ff02191690831515021790555060018160000160158282829054906101000a900460ff160192506101000a81548160ff021916908360ff1602179055508060010160009054906101000a900473ffffffffffffffffffffffffffffffffffffffff1673ffffffffffffffffffffffffffffffffffffffff168160000160009054906101000a900473ffffffffffffffffffffffffffffffffffffffff1673ffffffffffffffffffffffffffffffffffffffff167f817694a005a7dd137f16ac53499d2f19c6ec10cbd95cc9b207797a8c03a6e18a3385600260008760000160009054906101000a900473ffffffffffffffffffffffffffffffffffffffff1673ffffffffffffffffffffffffffffffffffffffff1673ffffffffffffffffffffffffffffffffffffffff16815260200190815260200160002054604051808473ffffffffffffffffffffffffffffffffffffffff1673ffffffffffffffffffffffffffffffffffffffff168152602001838152602001828152602001935050505060405180910390a343600260008360000160009054906101000a900473ffffffffffffffffffffffffffffffffffffffff1673ffffffffffffffffffffffffffffffffffffffff1673ffffffffffffffffffffffffffffffffffffffff168152602001908152602001600020819055506124db826119f7565b505050565b82805482825590600052602060002090810192821561251c579160200282015b8281111561251b578251825591602001919060010190612500565b5b5090506125299190612684565b5090565b828054600181600116156101000203166002900490600052602060002090601f016020900481019282601f1061256e57805160ff191683800117855561259c565b8280016001018555821561259c579182015b8281111561259b578251825591602001919060010190612580565b5b5090506125a99190612684565b5090565b828054828255906000526020600020908101928215612626579160200282015b828111156126255782518260006101000a81548173ffffffffffffffffffffffffffffffffffffffff021916908373ffffffffffffffffffffffffffffffffffffffff160217905550916020019190600101906125cd565b5b50905061263391906126a9565b5090565b828054828255906000526020600020908101928215612673579160200282015b82811115612672578251825591602001919060010190612657565b5b50905061268091906126ec565b5090565b6126a691905b808211156126a257600081600090555060010161268a565b5090565b90565b6126e991905b808211156126e557600081816101000a81549073ffffffffffffffffffffffffffffffffffffffff0219169055506001016126af565b5090565b90565b61270e91905b8082111561270a5760008160009055506001016126f2565b5090565b9056fe73656e64657220616c726561647920636f6e6669726d65642074686973206f7065726174696f6e73656e64657220686173206e6f7420636f6e6669726d65642074686973206f7065726174696f6e207965746f6e6c7920636f6e7472616374206465706c6f7965722063616e2065786563757465a165627a7a723058209fac0a45f8f823c23f3c869c178030d4cadcb4fced2d9d38e3481ead051078690029",
  "source": "pragma solidity ^0.5.1;\n\nimport './OperationExecutor.sol';\nimport './PermissionRegistry.sol';\n\n/// @title MultiSigOperations - Generalized multi signature operations contract for a Self Sovereign Identity approach\n/// @notice An identity can have multiple delegates with different permissions for each OperationExecutor contract. This can either be the addition and remotion of delegates, or the update of a credential status on a status list. It needs a contract extending PermissionRegistry interface to hold the permissions which will be used to handle confirmations and executions of operations.\n/// @author Andrea Taglia - drew.taglia@gmail.com\ncontract MultiSigOperations{\n\n  /**\n  Events\n  */\n  event Submission(address indexed identity, address sender, uint operationId, address indexed executor, uint lastOperationBlock);\n  event Confirmation(address indexed identity, address sender, uint operationId, address indexed executor, uint lastOperationBlock);\n  event Revocation(address indexed identity, address sender, uint operationId, address indexed executor, uint lastOperationBlock);\n  event Execution(address indexed identity, uint operationId, address indexed executor, uint lastOperationBlock);\n\n  /**\n  Storage\n  */\n  mapping(uint => Operation) public operations;\n  mapping(uint => mapping(address => bool)) public confirmations;\n  mapping(address => uint) public lastOperationBlock;\n  address public deployer;\n  PermissionRegistry public permissionRegistry;\n  uint256 public operationsCount;\n  bool public stopped = false;\n  /// @dev generic operation structure\n  struct Operation {\n    address identity;\n    bool executed;\n    uint8 confirmationsCount;\n    address executor;\n    uint256[] intParams;\n    string stringParams;\n    address[] addressParams;\n    bytes32[] bytesParams;\n  }\n\n  /**\n  Modifiers\n  */\n  /// @dev asks the permission registry contract whether permission for the message sender are satisfied for the given identity and the given executor address\n  modifier needsPermission(address identity, address executorAddress){\n    require(executorAddress != address(0x0), \"unknown executor address\");\n    require(permissionRegistry.actorHasPermission(identity, executorAddress, msg.sender), \"permission has not been granted\");\n    _;\n  }\n  modifier stopInEmergency {require(!stopped, \"circuit breaker active\"); _;}\n  modifier onlyInEmergency {require(stopped, \"circuit breaker not active\"); _;}\n  modifier onlyDeployer {require(msg.sender == deployer, \"only contract deployer can execute\"); _;}\n\n  /**\n  Constructor\n  */\n  /// @notice sets the deployer of the contract equals to message sender\n  constructor() public {\n    deployer = msg.sender;\n  }\n\n  /**\n  Public Functions\n  */\n  /// @dev need to set PermissionRegistry contract address before the contract can start operating\n  /// @param registryAddress (address) any contract address extending PermissionRegistry interface\n  function setPermissionRegistry(address registryAddress) public {\n    require(msg.sender == deployer, \"only deployer\");\n    require(address(permissionRegistry) == address(0x0), \"registry already set\");\n    permissionRegistry = PermissionRegistry(registryAddress);\n  }\n\n  /// @notice in case of emergency it can be called by the deployer to block the contract confirming any operation\n  function enableCircuitBreaker() public onlyDeployer() stopInEmergency(){\n    stopped = true;\n  }\n\n  /// @notice used to go back functioning after an emergency stop\n  function disableCircuitBreaker() public onlyDeployer() onlyInEmergency(){\n    stopped = false;\n  }\n\n\n  /// @dev operation's parameters are packed into generic arrays. Execute methods of each executor contract expects its own params\n  /// @notice entry point to submit a generic operation\n  /// @param identity (address) identity subject of the operation\n  /// @param executor (address) contract address extending OperationExecutor interface on which the operation will be executed\n  /// @param intParams () generic integer parameters for the operation\n  /// @param stringParams (string) generic string parameter for the operation\n  /// @param addressParams () generic address parameters for the operation\n  /// @param bytesParams () generic bytes parameters for the operation\n  /// @return  (uint256) operation ID\n  function submitOperation(address identity, address executor, uint256[] memory intParams, string memory stringParams, address[] memory addressParams, bytes32[] memory bytesParams) public needsPermission(identity, executor) returns (uint256) {\n    operationsCount += 1;\n    operations[operationsCount] = Operation({\n      executed: false,\n      identity: identity,\n      confirmationsCount: 0,\n      executor: executor,\n      intParams: intParams,\n      stringParams: stringParams,\n      addressParams: addressParams,\n      bytesParams: bytesParams\n    });\n    emit Submission(identity, msg.sender, operationsCount, executor, lastOperationBlock[identity]);\n    lastOperationBlock[identity] = block.number;\n    confirm(operationsCount);\n    return operationsCount;\n  }\n\n  /// @notice entry point to confirm an operation. Only authorized addresses for that executor and for that identity are authorized\n  /// @param opId (uint256) operation identifier to be confirm\n  function confirmOperation(uint256 opId) public needsPermission(operations[opId].identity, operations[opId].executor) {\n    confirm(opId);\n  }\n\n  /**\n  Internal Functions\n  */\n\n  /// @param opId (uint256) operation identifier to be confirmed\n  function confirm(uint256 opId) internal stopInEmergency(){\n    Operation storage op = operations[opId];\n    require(op.identity != address(0), \"operation does not exist\");\n    require(confirmations[opId][msg.sender] == false, \"sender already confirmed this operation\");\n    confirmations[opId][msg.sender] = true;\n    op.confirmationsCount += 1;\n    emit Confirmation(op.identity, msg.sender, opId, op.executor, lastOperationBlock[op.identity]);\n    lastOperationBlock[op.identity] = block.number;\n    executeOperation(opId);\n  }\n\n\n  /// @notice allows to revoke a confirmation already placed for a certain operation, as long as that operation has not been executed yet\n  /// @param opId (uint256) operation identifier for which to revoke confirmation\n  function revokeConfirmation(uint256 opId) public {\n    Operation storage op = operations[opId];\n    require(op.identity != address(0), \"operation does not exist\");\n    require(op.executed == false, \"operation already executed\");\n    require(confirmations[opId][msg.sender] == true, \"sender has not confirmed this operation yet\");\n    confirmations[opId][msg.sender] = false;\n    op.confirmationsCount -= 1;\n    emit Revocation(op.identity, msg.sender, opId, op.executor, lastOperationBlock[op.identity]);\n    lastOperationBlock[op.identity] = block.number;\n    executeOperation(opId);\n  }\n\n\n  /// @dev generic operation executor. it checks the operation has enough confirmation, then calls the execute method on the intended OperationExecutor contract\n  /// @param opId (uint256) operation identitifier to execute\n  /// @return  (bool) whether the operation has been executed or not\n  function executeOperation(uint256 opId) internal returns (bool) {\n    Operation storage op = operations[opId];\n    require(op.executed == false, \"Operation already executed\");\n    if (permissionRegistry.quorumSatisfied(op.identity, op.executor, op.confirmationsCount)) {\n      op.executed = true;\n      OperationExecutor executor = OperationExecutor(op.executor);\n      emit Execution(op.identity, opId, op.executor, lastOperationBlock[op.identity]);\n      lastOperationBlock[op.identity] = block.number;\n      executor.execute(op.identity, op.intParams, op.stringParams, op.addressParams, op.bytesParams);\n      return true;\n    }\n    return false;\n  }\n\n}\n\n\n\n",
  "sourcePath": "/mnt/c/dev/ssi/ssi-smart-contracts/contracts/MultiSigOperations.sol",
  "compiler": {
    "name": "solc",
    "version": "0.5.8+commit.23d335f2.Emscripten.clang"
  },
  "schemaVersion": "3.0.11",
  "updatedAt": "2019-08-30T09:25:53.269Z",
  "devdoc": {
    "author": "Andrea Taglia - drew.taglia@gmail.com",
    "methods": {
      "confirmOperation(uint256)": {
        "params": {
          "opId": "(uint256) operation identifier to be confirm"
        }
      },
      "revokeConfirmation(uint256)": {
        "params": {
          "opId": "(uint256) operation identifier for which to revoke confirmation"
        }
      },
      "setPermissionRegistry(address)": {
        "details": "need to set PermissionRegistry contract address before the contract can start operating",
        "params": {
          "registryAddress": "(address) any contract address extending PermissionRegistry interface"
        }
      },
      "submitOperation(address,address,uint256[],string,address[],bytes32[])": {
        "details": "operation's parameters are packed into generic arrays. Execute methods of each executor contract expects its own params",
        "params": {
          "addressParams": "() generic address parameters for the operation",
          "bytesParams": "() generic bytes parameters for the operation",
          "executor": "(address) contract address extending OperationExecutor interface on which the operation will be executed",
          "identity": "(address) identity subject of the operation",
          "intParams": "() generic integer parameters for the operation",
          "stringParams": "(string) generic string parameter for the operation"
        },
        "return": "(uint256) operation ID"
      }
    },
    "title": "MultiSigOperations - Generalized multi signature operations contract for a Self Sovereign Identity approach"
  },
  "userdoc": {
    "methods": {
      "confirmOperation(uint256)": {
        "notice": "entry point to confirm an operation. Only authorized addresses for that executor and for that identity are authorized"
      },
      "constructor": "sets the deployer of the contract equals to message sender",
      "disableCircuitBreaker()": {
        "notice": "used to go back functioning after an emergency stop"
      },
      "enableCircuitBreaker()": {
        "notice": "in case of emergency it can be called by the deployer to block the contract confirming any operation"
      },
      "revokeConfirmation(uint256)": {
        "notice": "allows to revoke a confirmation already placed for a certain operation, as long as that operation has not been executed yet"
      },
      "submitOperation(address,address,uint256[],string,address[],bytes32[])": {
        "notice": "entry point to submit a generic operation"
      }
    },
    "notice": "An identity can have multiple delegates with different permissions for each OperationExecutor contract. This can either be the addition and remotion of delegates, or the update of a credential status on a status list. It needs a contract extending PermissionRegistry interface to hold the permissions which will be used to handle confirmations and executions of operations."
  }
}