{
  "contractName": "OperationExecutor",
  "abi": [
    {
      "constant": true,
      "inputs": [],
      "name": "multiSigContract",
      "outputs": [
        {
          "name": "",
          "type": "address"
        }
      ],
      "payable": false,
      "stateMutability": "view",
      "type": "function"
    },
    {
      "inputs": [
        {
          "name": "_multiSigContract",
          "type": "address"
        }
      ],
      "payable": false,
      "stateMutability": "nonpayable",
      "type": "constructor"
    },
    {
      "constant": false,
      "inputs": [
        {
          "name": "identity",
          "type": "address"
        },
        {
          "name": "intParams",
          "type": "uint256[]"
        },
        {
          "name": "stringParams",
          "type": "string"
        },
        {
          "name": "addressParams",
          "type": "address[]"
        },
        {
          "name": "bytesParams",
          "type": "bytes32[]"
        }
      ],
      "name": "execute",
      "outputs": [
        {
          "name": "",
          "type": "bool"
        }
      ],
      "payable": false,
      "stateMutability": "nonpayable",
      "type": "function"
    }
  ],
  "bytecode": "0x608060405234801561001057600080fd5b506040516020806104ea8339810180604052602081101561003057600080fd5b8101908080519060200190929190505050806000806101000a81548173ffffffffffffffffffffffffffffffffffffffff021916908373ffffffffffffffffffffffffffffffffffffffff16021790555050610459806100916000396000f3fe608060405234801561001057600080fd5b50600436106100365760003560e01c80638faaefc81461003b578063f1c4195814610085575b600080fd5b610043610334565b604051808273ffffffffffffffffffffffffffffffffffffffff1673ffffffffffffffffffffffffffffffffffffffff16815260200191505060405180910390f35b61031a600480360360a081101561009b57600080fd5b81019080803573ffffffffffffffffffffffffffffffffffffffff169060200190929190803590602001906401000000008111156100d857600080fd5b8201836020820111156100ea57600080fd5b8035906020019184602083028401116401000000008311171561010c57600080fd5b919080806020026020016040519081016040528093929190818152602001838360200280828437600081840152601f19601f8201169050808301925050505050505091929192908035906020019064010000000081111561016c57600080fd5b82018360208201111561017e57600080fd5b803590602001918460018302840111640100000000831117156101a057600080fd5b91908080601f016020809104026020016040519081016040528093929190818152602001838380828437600081840152601f19601f8201169050808301925050505050505091929192908035906020019064010000000081111561020357600080fd5b82018360208201111561021557600080fd5b8035906020019184602083028401116401000000008311171561023757600080fd5b919080806020026020016040519081016040528093929190818152602001838360200280828437600081840152601f19601f8201169050808301925050505050505091929192908035906020019064010000000081111561029757600080fd5b8201836020820111156102a957600080fd5b803590602001918460208302840111640100000000831117156102cb57600080fd5b919080806020026020016040519081016040528093929190818152602001838360200280828437600081840152601f19601f820116905080830192505050505050509192919290505050610359565b604051808215151515815260200191505060405180910390f35b6000809054906101000a900473ffffffffffffffffffffffffffffffffffffffff1681565b60008060009054906101000a900473ffffffffffffffffffffffffffffffffffffffff1673ffffffffffffffffffffffffffffffffffffffff163373ffffffffffffffffffffffffffffffffffffffff1614610400576040517f08c379a000000000000000000000000000000000000000000000000000000000815260040180806020018281038252602481526020018061040a6024913960400191505060405180910390fd5b9594505050505056fe6f6e6c79206d756c7469736967636f6e74726163742063616e2065786563757465206974a165627a7a72305820bfddf1e83a04c446a7ab9d5f76c0fffd6e492290f1ba48a0960c153a5111ab800029",
  "source": "pragma solidity ^0.5.1;\r\n\r\n/// @title Opeation Executor base contract\r\n/// @notice Extending this contract allows executing operations in a multi sig manner\r\n/// @author Andrea Taglia - <drew.taglia@gmail.com>\r\ncontract OperationExecutor {\r\n\r\n    /// @notice address of the multiSigOperations contract which will be the only one able to call the execute function once an operations has reached enough confirmations\r\n    address public multiSigContract;\r\n\r\n\r\n    /// @dev needs to set the MultiSigOperations contract address in order for the contract to be functioning\r\n    /// @param _multiSigContract (address) address of the MultiSigOperations contract\r\n    constructor(address _multiSigContract) public {\r\n        multiSigContract = _multiSigContract;\r\n    }\r\n\r\n    /// @dev this is the only function that will be called from the MultiSigOperations contract. If multiple operations have to be executed use one param to select one or another\r\n    /// @param identity (address) identity subject of the operation to be executed\r\n    /// @param intParams () generic integer parameters for the operation\r\n    /// @param stringParams (string) generic string parameter for the operation\r\n    /// @param addressParams () generic address parameters for the operation\r\n    /// @param bytesParams () generic bytes parameters for the operation\r\n    /// @return  (bool) whether the execution was successfull or not\r\n    function execute(address identity, uint256[] memory intParams, string memory stringParams, address[] memory addressParams, bytes32[] memory bytesParams) public returns (bool) { \r\n        require(msg.sender == multiSigContract, \"only multisigcontract can execute it\");\r\n    }\r\n\r\n}\r\n",
  "sourcePath": "/mnt/c/dev/ssi/ssi-smart-contracts/contracts/OperationExecutor.sol",
  "compiler": {
    "name": "solc",
    "version": "0.5.8+commit.23d335f2.Emscripten.clang"
  },
  "schemaVersion": "3.0.11",
  "updatedAt": "2019-08-30T09:25:52.210Z",
  "devdoc": {
    "author": "Andrea Taglia - <drew.taglia@gmail.com>",
    "methods": {
      "constructor": {
        "params": {
          "_multiSigContract": "(address) address of the MultiSigOperations contract"
        }
      },
      "execute(address,uint256[],string,address[],bytes32[])": {
        "return": "(bool) whether the execution was successfull or not"
      }
    }
  },
  "userdoc": {
    "methods": {}
  }
}