{
  "contractName": "PistisDIDRegistry",
  "abi": [
    {
      "constant": true,
      "inputs": [
        {
          "name": "",
          "type": "address"
        },
        {
          "name": "",
          "type": "address"
        }
      ],
      "name": "minQuorum",
      "outputs": [
        {
          "name": "",
          "type": "uint8"
        }
      ],
      "payable": false,
      "stateMutability": "view",
      "type": "function"
    },
    {
      "constant": true,
      "inputs": [
        {
          "name": "",
          "type": "address"
        }
      ],
      "name": "blockChanged",
      "outputs": [
        {
          "name": "",
          "type": "uint256"
        }
      ],
      "payable": false,
      "stateMutability": "view",
      "type": "function"
    },
    {
      "constant": true,
      "inputs": [
        {
          "name": "",
          "type": "address"
        },
        {
          "name": "",
          "type": "address"
        }
      ],
      "name": "delegatesCount",
      "outputs": [
        {
          "name": "",
          "type": "uint256"
        }
      ],
      "payable": false,
      "stateMutability": "view",
      "type": "function"
    },
    {
      "constant": true,
      "inputs": [
        {
          "name": "",
          "type": "address"
        }
      ],
      "name": "primaryAddressChanged",
      "outputs": [
        {
          "name": "",
          "type": "bool"
        }
      ],
      "payable": false,
      "stateMutability": "view",
      "type": "function"
    },
    {
      "constant": true,
      "inputs": [],
      "name": "multiSigContract",
      "outputs": [
        {
          "name": "",
          "type": "address"
        }
      ],
      "payable": false,
      "stateMutability": "view",
      "type": "function"
    },
    {
      "constant": true,
      "inputs": [],
      "name": "DEFAULT_REQUIRED_QUORUM",
      "outputs": [
        {
          "name": "",
          "type": "uint8"
        }
      ],
      "payable": false,
      "stateMutability": "view",
      "type": "function"
    },
    {
      "constant": true,
      "inputs": [
        {
          "name": "",
          "type": "address"
        },
        {
          "name": "",
          "type": "address"
        },
        {
          "name": "",
          "type": "address"
        }
      ],
      "name": "delegates",
      "outputs": [
        {
          "name": "",
          "type": "bool"
        }
      ],
      "payable": false,
      "stateMutability": "view",
      "type": "function"
    },
    {
      "inputs": [
        {
          "name": "defaultRequiredQuorum",
          "type": "uint8"
        },
        {
          "name": "multiSigContract",
          "type": "address"
        }
      ],
      "payable": false,
      "stateMutability": "nonpayable",
      "type": "constructor"
    },
    {
      "anonymous": false,
      "inputs": [
        {
          "indexed": true,
          "name": "identity",
          "type": "address"
        },
        {
          "indexed": false,
          "name": "executor",
          "type": "address"
        },
        {
          "indexed": false,
          "name": "delegate",
          "type": "address"
        },
        {
          "indexed": false,
          "name": "added",
          "type": "bool"
        },
        {
          "indexed": false,
          "name": "previousChange",
          "type": "uint256"
        }
      ],
      "name": "DIDDelegateChanged",
      "type": "event"
    },
    {
      "constant": true,
      "inputs": [
        {
          "name": "identity",
          "type": "address"
        },
        {
          "name": "executor",
          "type": "address"
        },
        {
          "name": "actor",
          "type": "address"
        }
      ],
      "name": "actorHasPermission",
      "outputs": [
        {
          "name": "",
          "type": "bool"
        }
      ],
      "payable": false,
      "stateMutability": "view",
      "type": "function"
    },
    {
      "constant": true,
      "inputs": [
        {
          "name": "identity",
          "type": "address"
        },
        {
          "name": "executor",
          "type": "address"
        },
        {
          "name": "confirmationCount",
          "type": "uint8"
        }
      ],
      "name": "quorumSatisfied",
      "outputs": [
        {
          "name": "",
          "type": "bool"
        }
      ],
      "payable": false,
      "stateMutability": "view",
      "type": "function"
    },
    {
      "constant": false,
      "inputs": [
        {
          "name": "identity",
          "type": "address"
        },
        {
          "name": "intParams",
          "type": "uint256[]"
        },
        {
          "name": "stringParams",
          "type": "string"
        },
        {
          "name": "addressParams",
          "type": "address[]"
        },
        {
          "name": "bytesParams",
          "type": "bytes32[]"
        }
      ],
      "name": "execute",
      "outputs": [
        {
          "name": "",
          "type": "bool"
        }
      ],
      "payable": false,
      "stateMutability": "nonpayable",
      "type": "function"
    }
  ],
  "bytecode": "0x608060405234801561001057600080fd5b506040516040806115d88339810180604052604081101561003057600080fd5b8101908080519060200190929190805190602001909291905050508080806000806101000a81548173ffffffffffffffffffffffffffffffffffffffff021916908373ffffffffffffffffffffffffffffffffffffffff160217905550505081600660006101000a81548160ff021916908360ff160217905550505061151d806100bb6000396000f3fe608060405234801561001057600080fd5b506004361061009e5760003560e01c806393307f5b1161006657806393307f5b14610297578063b0f41737146102bb578063ca05767514610357578063e206d631146103f3578063f1c419581461047c5761009e565b80631e8bad0d146100a357806323de40ea146101215780634b6f8e7b1461017957806366805aa1146101f15780638faaefc81461024d575b600080fd5b610105600480360360408110156100b957600080fd5b81019080803573ffffffffffffffffffffffffffffffffffffffff169060200190929190803573ffffffffffffffffffffffffffffffffffffffff16906020019092919050505061072b565b604051808260ff1660ff16815260200191505060405180910390f35b6101636004803603602081101561013757600080fd5b81019080803573ffffffffffffffffffffffffffffffffffffffff16906020019092919050505061075a565b6040518082815260200191505060405180910390f35b6101db6004803603604081101561018f57600080fd5b81019080803573ffffffffffffffffffffffffffffffffffffffff169060200190929190803573ffffffffffffffffffffffffffffffffffffffff169060200190929190505050610772565b6040518082815260200191505060405180910390f35b6102336004803603602081101561020757600080fd5b81019080803573ffffffffffffffffffffffffffffffffffffffff169060200190929190505050610797565b604051808215151515815260200191505060405180910390f35b6102556107b7565b604051808273ffffffffffffffffffffffffffffffffffffffff1673ffffffffffffffffffffffffffffffffffffffff16815260200191505060405180910390f35b61029f6107dc565b604051808260ff1660ff16815260200191505060405180910390f35b61033d600480360360608110156102d157600080fd5b81019080803573ffffffffffffffffffffffffffffffffffffffff169060200190929190803573ffffffffffffffffffffffffffffffffffffffff169060200190929190803573ffffffffffffffffffffffffffffffffffffffff1690602001909291905050506107ef565b604051808215151515815260200191505060405180910390f35b6103d96004803603606081101561036d57600080fd5b81019080803573ffffffffffffffffffffffffffffffffffffffff169060200190929190803573ffffffffffffffffffffffffffffffffffffffff169060200190929190803573ffffffffffffffffffffffffffffffffffffffff16906020019092919050505061082b565b604051808215151515815260200191505060405180910390f35b6104626004803603606081101561040957600080fd5b81019080803573ffffffffffffffffffffffffffffffffffffffff169060200190929190803573ffffffffffffffffffffffffffffffffffffffff169060200190929190803560ff169060200190929190505050610991565b604051808215151515815260200191505060405180910390f35b610711600480360360a081101561049257600080fd5b81019080803573ffffffffffffffffffffffffffffffffffffffff169060200190929190803590602001906401000000008111156104cf57600080fd5b8201836020820111156104e157600080fd5b8035906020019184602083028401116401000000008311171561050357600080fd5b919080806020026020016040519081016040528093929190818152602001838360200280828437600081840152601f19601f8201169050808301925050505050505091929192908035906020019064010000000081111561056357600080fd5b82018360208201111561057557600080fd5b8035906020019184600183028401116401000000008311171561059757600080fd5b91908080601f016020809104026020016040519081016040528093929190818152602001838380828437600081840152601f19601f820116905080830192505050505050509192919290803590602001906401000000008111156105fa57600080fd5b82018360208201111561060c57600080fd5b8035906020019184602083028401116401000000008311171561062e57600080fd5b919080806020026020016040519081016040528093929190818152602001838360200280828437600081840152601f19601f8201169050808301925050505050505091929192908035906020019064010000000081111561068e57600080fd5b8201836020820111156106a057600080fd5b803590602001918460208302840111640100000000831117156106c257600080fd5b919080806020026020016040519081016040528093929190818152602001838360200280828437600081840152601f19601f820116905080830192505050505050509192919290505050610ad3565b604051808215151515815260200191505060405180910390f35b60046020528160005260406000206020528060005260406000206000915091509054906101000a900460ff1681565b60056020528060005260406000206000915090505481565b6002602052816000526040600020602052806000526040600020600091509150505481565b60036020528060005260406000206000915054906101000a900460ff1681565b6000809054906101000a900473ffffffffffffffffffffffffffffffffffffffff1681565b600660009054906101000a900460ff1681565b6001602052826000526040600020602052816000526040600020602052806000526040600020600092509250509054906101000a900460ff1681565b60008173ffffffffffffffffffffffffffffffffffffffff168473ffffffffffffffffffffffffffffffffffffffff161480156108b25750600360008573ffffffffffffffffffffffffffffffffffffffff1673ffffffffffffffffffffffffffffffffffffffff16815260200190815260200160002060009054906101000a900460ff16155b156108c0576001905061098a565b600160008573ffffffffffffffffffffffffffffffffffffffff1673ffffffffffffffffffffffffffffffffffffffff16815260200190815260200160002060008473ffffffffffffffffffffffffffffffffffffffff1673ffffffffffffffffffffffffffffffffffffffff16815260200190815260200160002060008373ffffffffffffffffffffffffffffffffffffffff1673ffffffffffffffffffffffffffffffffffffffff16815260200190815260200160002060009054906101000a900460ff1690505b9392505050565b600080600460008673ffffffffffffffffffffffffffffffffffffffff1673ffffffffffffffffffffffffffffffffffffffff16815260200190815260200160002060008573ffffffffffffffffffffffffffffffffffffffff1673ffffffffffffffffffffffffffffffffffffffff16815260200190815260200160002060009054906101000a900460ff1660ff161415610a365760018260ff1610159050610acc565b600460008573ffffffffffffffffffffffffffffffffffffffff1673ffffffffffffffffffffffffffffffffffffffff16815260200190815260200160002060008473ffffffffffffffffffffffffffffffffffffffff1673ffffffffffffffffffffffffffffffffffffffff16815260200190815260200160002060009054906101000a900460ff1660ff168260ff16101590505b9392505050565b6000610ae286868686866112b2565b50600083600081518110610af257fe5b60200260200101519050600084600181518110610b0b57fe5b602002602001015190506000600188600081518110610b2657fe5b60200260200101511490508015610de4578273ffffffffffffffffffffffffffffffffffffffff168973ffffffffffffffffffffffffffffffffffffffff161415610bbc576040517f08c379a000000000000000000000000000000000000000000000000000000000815260040180806020018281038252602d815260200180611447602d913960400191505060405180910390fd5b80600160008b73ffffffffffffffffffffffffffffffffffffffff1673ffffffffffffffffffffffffffffffffffffffff16815260200190815260200160002060008473ffffffffffffffffffffffffffffffffffffffff1673ffffffffffffffffffffffffffffffffffffffff16815260200190815260200160002060008573ffffffffffffffffffffffffffffffffffffffff1673ffffffffffffffffffffffffffffffffffffffff16815260200190815260200160002060006101000a81548160ff0219169083151502179055506001600260008b73ffffffffffffffffffffffffffffffffffffffff1673ffffffffffffffffffffffffffffffffffffffff16815260200190815260200160002060008473ffffffffffffffffffffffffffffffffffffffff1673ffffffffffffffffffffffffffffffffffffffff16815260200190815260200160002060008282540192505081905550600660009054906101000a900460ff1660ff16610d358a84611362565b10610ddf57600660009054906101000a900460ff16600460008b73ffffffffffffffffffffffffffffffffffffffff1673ffffffffffffffffffffffffffffffffffffffff16815260200190815260200160002060008473ffffffffffffffffffffffffffffffffffffffff1673ffffffffffffffffffffffffffffffffffffffff16815260200190815260200160002060006101000a81548160ff021916908360ff1602179055505b61115d565b6001610df08a30611362565b148015610e5e57503073ffffffffffffffffffffffffffffffffffffffff168273ffffffffffffffffffffffffffffffffffffffff161480610e5d57508873ffffffffffffffffffffffffffffffffffffffff168373ffffffffffffffffffffffffffffffffffffffff16145b5b15610eb4576040517f08c379a000000000000000000000000000000000000000000000000000000000815260040180806020018281038252605a815260200180611474605a913960600191505060405180910390fd5b8873ffffffffffffffffffffffffffffffffffffffff168373ffffffffffffffffffffffffffffffffffffffff161415610f45576001600360008b73ffffffffffffffffffffffffffffffffffffffff1673ffffffffffffffffffffffffffffffffffffffff16815260200190815260200160002060006101000a81548160ff0219169083151502179055506110a2565b80600160008b73ffffffffffffffffffffffffffffffffffffffff1673ffffffffffffffffffffffffffffffffffffffff16815260200190815260200160002060008473ffffffffffffffffffffffffffffffffffffffff1673ffffffffffffffffffffffffffffffffffffffff16815260200190815260200160002060008573ffffffffffffffffffffffffffffffffffffffff1673ffffffffffffffffffffffffffffffffffffffff16815260200190815260200160002060006101000a81548160ff0219169083151502179055506001600260008b73ffffffffffffffffffffffffffffffffffffffff1673ffffffffffffffffffffffffffffffffffffffff16815260200190815260200160002060008473ffffffffffffffffffffffffffffffffffffffff1673ffffffffffffffffffffffffffffffffffffffff168152602001908152602001600020600082825403925050819055505b600660009054906101000a900460ff1660ff166110bf8a84611362565b101561115c576000600460008b73ffffffffffffffffffffffffffffffffffffffff1673ffffffffffffffffffffffffffffffffffffffff16815260200190815260200160002060008473ffffffffffffffffffffffffffffffffffffffff1673ffffffffffffffffffffffffffffffffffffffff16815260200190815260200160002060006101000a81548160ff021916908360ff1602179055505b5b8873ffffffffffffffffffffffffffffffffffffffff167f9b3942fd881ebc8efce6063a63a1530336442d5b211d31ba4146c798617ebb80838584600560008f73ffffffffffffffffffffffffffffffffffffffff1673ffffffffffffffffffffffffffffffffffffffff16815260200190815260200160002054604051808573ffffffffffffffffffffffffffffffffffffffff1673ffffffffffffffffffffffffffffffffffffffff1681526020018473ffffffffffffffffffffffffffffffffffffffff1673ffffffffffffffffffffffffffffffffffffffff1681526020018315151515815260200182815260200194505050505060405180910390a243600560008b73ffffffffffffffffffffffffffffffffffffffff1673ffffffffffffffffffffffffffffffffffffffff168152602001908152602001600020819055506001935050505095945050505050565b60008060009054906101000a900473ffffffffffffffffffffffffffffffffffffffff1673ffffffffffffffffffffffffffffffffffffffff163373ffffffffffffffffffffffffffffffffffffffff1614611359576040517f08c379a00000000000000000000000000000000000000000000000000000000081526004018080602001828103825260248152602001806114ce6024913960400191505060405180910390fd5b95945050505050565b600080600260008573ffffffffffffffffffffffffffffffffffffffff1673ffffffffffffffffffffffffffffffffffffffff16815260200190815260200160002060008473ffffffffffffffffffffffffffffffffffffffff1673ffffffffffffffffffffffffffffffffffffffff168152602001908152602001600020549050600360008573ffffffffffffffffffffffffffffffffffffffff1673ffffffffffffffffffffffffffffffffffffffff16815260200190815260200160002060009054906101000a900460ff1661143c576001810190505b809150509291505056fe7072696d61727920616464726573732063616e6e6f7420626520616464656420617320612064656c6567617465796f752063616e27742072656d6f76652074686973206c6173742064656c656761746520617320746865206964656e7469747920776f756c6420626520756e757361626c652061667465722074686973206f7065726174696f6e6f6e6c79206d756c7469736967636f6e74726163742063616e2065786563757465206974a165627a7a723058201ec4d3b070bf281e91a2d8900cdf6e6a8db751e9a0cde5d6d324b3cb619d0b510029",
  "source": "pragma solidity ^0.5.0;\r\n\r\nimport './PermissionRegistry.sol';\r\n\r\n/// @title DID Registry - Enforcing multi sig operations on W3C based DID standard registry\r\n/// @author Andrea Taglia - <drew.taglia@gmail.com>\r\ncontract PistisDIDRegistry is PermissionRegistry {\r\n\r\n    /**\r\n    Events\r\n    */\r\n    event DIDDelegateChanged(\r\n        address indexed identity,\r\n        address executor,\r\n        address delegate,\r\n        bool added,\r\n        uint previousChange\r\n    );\r\n\r\n    /**\r\n    Storage\r\n    */\r\n    /// @notice for each identity maps parmissions (i.e. executors address) to those addresses who have it granted.\r\n    mapping(address => mapping(address => mapping(address => bool))) public delegates;\r\n    /// @notice count delegates per identity\r\n    mapping(address => mapping(address => uint)) public delegatesCount;\r\n    /// @notice the primary address can be seen as a super user for the identity. it has permission for any executor by default. Once revoked it cannot be added back.\r\n    mapping(address => bool) public primaryAddressChanged;\r\n    /// @notice minimum quorum required to perform a certain operation per identity and per executor\r\n    mapping(address => mapping(address => uint8)) public minQuorum;\r\n    /// @notice latest update made on an identity. Needed to wrap the DID Document\r\n    mapping(address => uint) public blockChanged;\r\n    uint8 public DEFAULT_REQUIRED_QUORUM;\r\n\r\n    /**\r\n    Constructor\r\n    */\r\n    /// @param defaultRequiredQuorum (uint8) default quorum for operations\r\n    /// @param multiSigContract (address) address of the multiSigOperations contract to handle multi sig updates on this contract structure\r\n    constructor(uint8 defaultRequiredQuorum, address multiSigContract) PermissionRegistry(multiSigContract) public {\r\n        DEFAULT_REQUIRED_QUORUM = defaultRequiredQuorum;\r\n    }\r\n\r\n    /**\r\n    Public Functions\r\n    */\r\n    /// @param identity (address) identity to check permissions for\r\n    /// @param executor (address) executor to check permissions for\r\n    /// @param actor (address) acot to check permissions for\r\n    /// @return  (bool) whether the actor has permission relative to that identity for that executor\r\n    function actorHasPermission(address identity, address executor, address actor) public view returns(bool) {\r\n        if(identity == actor && !primaryAddressChanged[identity]){\r\n            return true;\r\n        }\r\n        return delegates[identity][executor][actor];\r\n    }\r\n\r\n    /// @param identity (address) identity to check quorum for\r\n    /// @param executor (address) executor address to check quorum for\r\n    /// @param confirmationCount (uint8) how many confirmations\r\n    /// @return  (bool) whether the quorum is reached\r\n    function quorumSatisfied(address identity, address executor, uint8 confirmationCount) public view returns(bool){\r\n        if (minQuorum[identity][executor] == 0) {\r\n            return confirmationCount >= 1;\r\n        }\r\n        return confirmationCount >= minQuorum[identity][executor];\r\n    }\r\n\r\n    /// @dev can either add or remove a delegate depeding on intParams[0]\r\n    /// @notice you can't remove a delegate with the current contract permission if it is the last one as it would make the identity unusable from that point onward\r\n    /// @param identity (address) identity relative to changes to make\r\n    /// @param intParams (uint256[]) index 0 has to carry 1 if delegate addition, anything else otherwise. other indexes not used\r\n    /// @param stringParams (string) not used\r\n    /// @param addressParams (address[]) index 0 has to carry the ethereum address of the delegate to changed state for. index 1 has to carry the executor address relative to the change\r\n    /// @param bytesParams (bytes32[]) not used\r\n    /// @return  (bool) true if everything went well\r\n    function execute(address identity, uint256[] memory intParams, string memory stringParams, address[] memory addressParams, bytes32[] memory bytesParams) public returns (bool) {\r\n        super.execute(identity, intParams, stringParams, addressParams, bytesParams);\r\n        address delegate = addressParams[0];\r\n        address permission = addressParams[1];\r\n        bool added = intParams[0] == 1;\r\n        if (added) {\r\n            require(identity != delegate, \"primary address cannot be added as a delegate\");\r\n            delegates[identity][permission][delegate] = added;\r\n            delegatesCount[identity][permission] += 1;\r\n            if(getDelegatesCount(identity, permission) >= DEFAULT_REQUIRED_QUORUM){\r\n                minQuorum[identity][permission] = DEFAULT_REQUIRED_QUORUM;\r\n            }\r\n        } else {\r\n            require(!(getDelegatesCount(identity, address(this)) == 1 && (permission == address(this) || delegate == identity)), \"you can't remove this last delegate as the identity would be unusable after this operation\");\r\n            if(delegate == identity) {\r\n                primaryAddressChanged[identity] = true;\r\n            }else{\r\n                delegates[identity][permission][delegate] = added;\r\n                delegatesCount[identity][permission] -= 1;\r\n            }\r\n            if(getDelegatesCount(identity, permission) < DEFAULT_REQUIRED_QUORUM){\r\n                minQuorum[identity][permission] = 0;\r\n            }\r\n        }\r\n        emit DIDDelegateChanged(identity, permission, delegate, added, blockChanged[identity]);\r\n        blockChanged[identity] = block.number;\r\n        return true;\r\n    }\r\n\r\n    /**\r\n    Internal Functions\r\n    */\r\n    /// @param identity (address) identity to count number of delegates for\r\n    /// @param permission (address) executor address to count number of delegates for\r\n    function getDelegatesCount(address identity, address permission) internal view returns(uint){\r\n        uint count = delegatesCount[identity][permission];\r\n        if (!primaryAddressChanged[identity]) {\r\n            count += 1;\r\n        }\r\n        return count;\r\n    }\r\n}",
  "sourcePath": "/mnt/c/dev/ssi/ssi-smart-contracts/contracts/PistisDIDRegistry.sol",
  "compiler": {
    "name": "solc",
    "version": "0.5.8+commit.23d335f2.Emscripten.clang"
  },
  "schemaVersion": "3.0.11",
  "updatedAt": "2019-08-30T09:25:53.282Z",
  "devdoc": {
    "author": "Andrea Taglia - <drew.taglia@gmail.com>",
    "methods": {
      "actorHasPermission(address,address,address)": {
        "return": "(bool) whether the actor has permission relative to that identity for that executor"
      },
      "constructor": {
        "params": {
          "multiSigContract": "(address) address of the multiSigOperations contract to handle multi sig updates on this contract structure"
        }
      },
      "execute(address,uint256[],string,address[],bytes32[])": {
        "return": "(bool) true if everything went well"
      },
      "quorumSatisfied(address,address,uint8)": {
        "return": "(bool) whether the quorum is reached"
      }
    }
  },
  "userdoc": {
    "methods": {}
  }
}